{
  "_format": "hh-sol-artifact-1",
  "contractName": "WavePortal",
  "sourceName": "contracts/WavePortal.sol",
  "abi": [
    {
      "inputs": [],
      "stateMutability": "payable",
      "type": "constructor"
    },
    {
      "anonymous": false,
      "inputs": [
        {
          "indexed": true,
          "internalType": "address",
          "name": "sender",
          "type": "address"
        },
        {
          "indexed": true,
          "internalType": "address",
          "name": "receiver",
          "type": "address"
        },
        {
          "indexed": false,
          "internalType": "uint256",
          "name": "timestamp",
          "type": "uint256"
        },
        {
          "indexed": false,
          "internalType": "string",
          "name": "message",
          "type": "string"
        },
        {
          "indexed": false,
          "internalType": "string",
          "name": "keyword",
          "type": "string"
        },
        {
          "indexed": false,
          "internalType": "uint256",
          "name": "amount",
          "type": "uint256"
        }
      ],
      "name": "NewWave",
      "type": "event"
    },
    {
      "inputs": [],
      "name": "getAllWaves",
      "outputs": [
        {
          "components": [
            {
              "internalType": "address",
              "name": "sender",
              "type": "address"
            },
            {
              "internalType": "address",
              "name": "receiver",
              "type": "address"
            },
            {
              "internalType": "uint256",
              "name": "timestamp",
              "type": "uint256"
            },
            {
              "internalType": "string",
              "name": "message",
              "type": "string"
            },
            {
              "internalType": "string",
              "name": "keyword",
              "type": "string"
            },
            {
              "internalType": "uint256",
              "name": "amount",
              "type": "uint256"
            }
          ],
          "internalType": "struct WavePortal.Wave[]",
          "name": "",
          "type": "tuple[]"
        }
      ],
      "stateMutability": "view",
      "type": "function"
    },
    {
      "inputs": [],
      "name": "getTotalWaves",
      "outputs": [
        {
          "internalType": "uint256",
          "name": "",
          "type": "uint256"
        }
      ],
      "stateMutability": "view",
      "type": "function"
    },
    {
      "inputs": [
        {
          "internalType": "address",
          "name": "",
          "type": "address"
        }
      ],
      "name": "lastWavedAt",
      "outputs": [
        {
          "internalType": "uint256",
          "name": "",
          "type": "uint256"
        }
      ],
      "stateMutability": "view",
      "type": "function"
    },
    {
      "inputs": [
        {
          "internalType": "address payable",
          "name": "receiver",
          "type": "address"
        },
        {
          "internalType": "string",
          "name": "_message",
          "type": "string"
        },
        {
          "internalType": "string",
          "name": "_keyword",
          "type": "string"
        },
        {
          "internalType": "uint256",
          "name": "amount",
          "type": "uint256"
        }
      ],
      "name": "wave",
      "outputs": [],
      "stateMutability": "nonpayable",
      "type": "function"
    }
  ],
  "bytecode": "0x60806040526200003360405180606001604052806025815260200162001770602591396200005b60201b620007b61760201c565b60644442620000439190620001a8565b6200004f919062000245565b600181905550620002ec565b620000fb8160405160240162000072919062000168565b6040516020818303038152906040527f41304fac000000000000000000000000000000000000000000000000000000007bffffffffffffffffffffffffffffffffffffffffffffffffffffffff19166020820180517bffffffffffffffffffffffffffffffffffffffffffffffffffffffff8381831617835250505050620000fe60201b60201c565b50565b60008151905060006a636f6e736f6c652e6c6f679050602083016000808483855afa5050505050565b600062000134826200018c565b62000140818562000197565b9350620001528185602086016200020f565b6200015d81620002db565b840191505092915050565b6000602082019050818103600083015262000184818462000127565b905092915050565b600081519050919050565b600082825260208201905092915050565b6000620001b58262000205565b9150620001c28362000205565b9250827fffffffffffffffffffffffffffffffffffffffffffffffffffffffffffffffff03821115620001fa57620001f96200027d565b5b828201905092915050565b6000819050919050565b60005b838110156200022f57808201518184015260208101905062000212565b838111156200023f576000848401525b50505050565b6000620002528262000205565b91506200025f8362000205565b925082620002725762000271620002ac565b5b828206905092915050565b7f4e487b7100000000000000000000000000000000000000000000000000000000600052601160045260246000fd5b7f4e487b7100000000000000000000000000000000000000000000000000000000600052601260045260246000fd5b6000601f19601f8301169050919050565b61147480620002fc6000396000f3fe608060405234801561001057600080fd5b506004361061004c5760003560e01c8063850b4dda146100515780639a2cdc081461006d578063a42a46631461008b578063bd43a908146100bb575b600080fd5b61006b60048036038101906100669190610bc2565b6100d9565b005b610075610510565b6040516100829190611006565b60405180910390f35b6100a560048036038101906100a09190610b99565b61055b565b6040516100b29190611006565b60405180910390f35b6100c3610573565b6040516100d09190610ebd565b60405180910390f35b42601e600360003373ffffffffffffffffffffffffffffffffffffffff1673ffffffffffffffffffffffffffffffffffffffff1681526020019081526020016000205461012691906110e8565b10610166576040517f08c379a000000000000000000000000000000000000000000000000000000000815260040161015d90610fa6565b60405180910390fd5b42600360003373ffffffffffffffffffffffffffffffffffffffff1673ffffffffffffffffffffffffffffffffffffffff1681526020019081526020016000208190555060016000808282546101bc91906110e8565b925050819055506102036040518060400160405280601681526020017f257320776176656420772f206d65737361676520257300000000000000000000815250338561084f565b60026040518060c001604052803373ffffffffffffffffffffffffffffffffffffffff1681526020018673ffffffffffffffffffffffffffffffffffffffff16815260200142815260200185815260200184815260200183815250908060018154018082558091505060019003906000526020600020906006020160009091909190915060008201518160000160006101000a81548173ffffffffffffffffffffffffffffffffffffffff021916908373ffffffffffffffffffffffffffffffffffffffff16021790555060208201518160010160006101000a81548173ffffffffffffffffffffffffffffffffffffffff021916908373ffffffffffffffffffffffffffffffffffffffff16021790555060408201518160020155606082015181600301908051906020019061033b929190610a4f565b506080820151816004019080519060200190610358929190610a4f565b5060a0820151816005015550506064444261037391906110e8565b61037d9190611231565b6001819055506103c46040518060400160405280601681526020017f52616e646f6d20232067656e6572617465643a202564000000000000000000008152506001546108ee565b60326001541161050a5761040d6040518060400160405280600781526020017f257320776f6e21000000000000000000000000000000000000000000000000008152503361098a565b6000655af3107a400090504781111561045b576040517f08c379a000000000000000000000000000000000000000000000000000000000815260040161045290610fc6565b60405180910390fd5b60003373ffffffffffffffffffffffffffffffffffffffff168260405161048190610ea8565b60006040518083038185875af1925050503d80600081146104be576040519150601f19603f3d011682016040523d82523d6000602084013e6104c3565b606091505b5050905080610507576040517f08c379a00000000000000000000000000000000000000000000000000000000081526004016104fe90610fe6565b60405180910390fd5b50505b50505050565b60006105536040518060400160405280601781526020017f5765206861766520256420746f74616c207761766573210000000000000000008152506000546108ee565b600054905090565b60036020528060005260406000206000915090505481565b60606002805480602002602001604051908101604052809291908181526020016000905b828210156107ad57838290600052602060002090600602016040518060c00160405290816000820160009054906101000a900473ffffffffffffffffffffffffffffffffffffffff1673ffffffffffffffffffffffffffffffffffffffff1673ffffffffffffffffffffffffffffffffffffffff1681526020016001820160009054906101000a900473ffffffffffffffffffffffffffffffffffffffff1673ffffffffffffffffffffffffffffffffffffffff1673ffffffffffffffffffffffffffffffffffffffff16815260200160028201548152602001600382018054610680906111ce565b80601f01602080910402602001604051908101604052809291908181526020018280546106ac906111ce565b80156106f95780601f106106ce576101008083540402835291602001916106f9565b820191906000526020600020905b8154815290600101906020018083116106dc57829003601f168201915b50505050508152602001600482018054610712906111ce565b80601f016020809104026020016040519081016040528092919081815260200182805461073e906111ce565b801561078b5780601f106107605761010080835404028352916020019161078b565b820191906000526020600020905b81548152906001019060200180831161076e57829003601f168201915b5050505050815260200160058201548152505081526020019060010190610597565b50505050905090565b61084c816040516024016107ca9190610edf565b6040516020818303038152906040527f41304fac000000000000000000000000000000000000000000000000000000007bffffffffffffffffffffffffffffffffffffffffffffffffffffffff19166020820180517bffffffffffffffffffffffffffffffffffffffffffffffffffffffff8381831617835250505050610a26565b50565b6108e983838360405160240161086793929190610f31565b6040516020818303038152906040527fe0e9ad4f000000000000000000000000000000000000000000000000000000007bffffffffffffffffffffffffffffffffffffffffffffffffffffffff19166020820180517bffffffffffffffffffffffffffffffffffffffffffffffffffffffff8381831617835250505050610a26565b505050565b6109868282604051602401610904929190610f76565b6040516020818303038152906040527f9710a9d0000000000000000000000000000000000000000000000000000000007bffffffffffffffffffffffffffffffffffffffffffffffffffffffff19166020820180517bffffffffffffffffffffffffffffffffffffffffffffffffffffffff8381831617835250505050610a26565b5050565b610a2282826040516024016109a0929190610f01565b6040516020818303038152906040527f319af333000000000000000000000000000000000000000000000000000000007bffffffffffffffffffffffffffffffffffffffffffffffffffffffff19166020820180517bffffffffffffffffffffffffffffffffffffffffffffffffffffffff8381831617835250505050610a26565b5050565b60008151905060006a636f6e736f6c652e6c6f679050602083016000808483855afa5050505050565b828054610a5b906111ce565b90600052602060002090601f016020900481019282610a7d5760008555610ac4565b82601f10610a9657805160ff1916838001178555610ac4565b82800160010185558215610ac4579182015b82811115610ac3578251825591602001919060010190610aa8565b5b509050610ad19190610ad5565b5090565b5b80821115610aee576000816000905550600101610ad6565b5090565b6000610b05610b0084611046565b611021565b905082815260208101848484011115610b1d57600080fd5b610b2884828561118c565b509392505050565b600081359050610b3f816113f9565b92915050565b600081359050610b5481611410565b92915050565b600082601f830112610b6b57600080fd5b8135610b7b848260208601610af2565b91505092915050565b600081359050610b9381611427565b92915050565b600060208284031215610bab57600080fd5b6000610bb984828501610b30565b91505092915050565b60008060008060808587031215610bd857600080fd5b6000610be687828801610b45565b945050602085013567ffffffffffffffff811115610c0357600080fd5b610c0f87828801610b5a565b935050604085013567ffffffffffffffff811115610c2c57600080fd5b610c3887828801610b5a565b9250506060610c4987828801610b84565b91505092959194509250565b6000610c618383610dfa565b905092915050565b610c728161113e565b82525050565b610c818161113e565b82525050565b6000610c9282611087565b610c9c81856110aa565b935083602082028501610cae85611077565b8060005b85811015610cea5784840389528151610ccb8582610c55565b9450610cd68361109d565b925060208a01995050600181019050610cb2565b50829750879550505050505092915050565b6000610d0782611092565b610d1181856110c6565b9350610d2181856020860161119b565b610d2a8161131e565b840191505092915050565b6000610d4082611092565b610d4a81856110d7565b9350610d5a81856020860161119b565b610d638161131e565b840191505092915050565b6000610d7b600e836110d7565b9150610d868261132f565b602082019050919050565b6000610d9e6000836110bb565b9150610da982611358565b600082019050919050565b6000610dc16033836110d7565b9150610dcc8261135b565b604082019050919050565b6000610de46026836110d7565b9150610def826113aa565b604082019050919050565b600060c083016000830151610e126000860182610c69565b506020830151610e256020860182610c69565b506040830151610e386040860182610e8a565b5060608301518482036060860152610e508282610cfc565b91505060808301518482036080860152610e6a8282610cfc565b91505060a0830151610e7f60a0860182610e8a565b508091505092915050565b610e9381611182565b82525050565b610ea281611182565b82525050565b6000610eb382610d91565b9150819050919050565b60006020820190508181036000830152610ed78184610c87565b905092915050565b60006020820190508181036000830152610ef98184610d35565b905092915050565b60006040820190508181036000830152610f1b8185610d35565b9050610f2a6020830184610c78565b9392505050565b60006060820190508181036000830152610f4b8186610d35565b9050610f5a6020830185610c78565b8181036040830152610f6c8184610d35565b9050949350505050565b60006040820190508181036000830152610f908185610d35565b9050610f9f6020830184610e99565b9392505050565b60006020820190508181036000830152610fbf81610d6e565b9050919050565b60006020820190508181036000830152610fdf81610db4565b9050919050565b60006020820190508181036000830152610fff81610dd7565b9050919050565b600060208201905061101b6000830184610e99565b92915050565b600061102b61103c565b90506110378282611200565b919050565b6000604051905090565b600067ffffffffffffffff821115611061576110606112ef565b5b61106a8261131e565b9050602081019050919050565b6000819050602082019050919050565b600081519050919050565b600081519050919050565b6000602082019050919050565b600082825260208201905092915050565b600081905092915050565b600082825260208201905092915050565b600082825260208201905092915050565b60006110f382611182565b91506110fe83611182565b9250827fffffffffffffffffffffffffffffffffffffffffffffffffffffffffffffffff0382111561113357611132611262565b5b828201905092915050565b600061114982611162565b9050919050565b600061115b82611162565b9050919050565b600073ffffffffffffffffffffffffffffffffffffffff82169050919050565b6000819050919050565b82818337600083830152505050565b60005b838110156111b957808201518184015260208101905061119e565b838111156111c8576000848401525b50505050565b600060028204905060018216806111e657607f821691505b602082108114156111fa576111f96112c0565b5b50919050565b6112098261131e565b810181811067ffffffffffffffff82111715611228576112276112ef565b5b80604052505050565b600061123c82611182565b915061124783611182565b92508261125757611256611291565b5b828206905092915050565b7f4e487b7100000000000000000000000000000000000000000000000000000000600052601160045260246000fd5b7f4e487b7100000000000000000000000000000000000000000000000000000000600052601260045260246000fd5b7f4e487b7100000000000000000000000000000000000000000000000000000000600052602260045260246000fd5b7f4e487b7100000000000000000000000000000000000000000000000000000000600052604160045260246000fd5b6000601f19601f8301169050919050565b7f576169742033307365636f6e6473000000000000000000000000000000000000600082015250565b50565b7f547279696e6720746f207769746864726177206d6f7265206d6f6e657920746860008201527f616e2074686520636f6e74726163742068617300000000000000000000000000602082015250565b7f4641696c656420746f207769746864726177206d6f6e65792066726f6d20636f60008201527f6e74726163740000000000000000000000000000000000000000000000000000602082015250565b6114028161113e565b811461140d57600080fd5b50565b61141981611150565b811461142457600080fd5b50565b61143081611182565b811461143b57600080fd5b5056fea2646970667358221220415f30d772f8f82c5086f951cda07df220aca924cebb57e35f844ec2ad15250e64736f6c63430008040033596f20796f2c204920616d206120636f6e747261637420616e64204920616d20736d617274",
  "linkReferences": {},
  "deployedLinkReferences": {}
}